:020000040000FA
:1000000085EF00F01201000200000008D80455003E
:1000100001000102000105010906A101050719E01F
:1000200029E71500250175019508810295017508DC
:1000300081039505750105081901290591029501AE
:1000400075039103950675081500256505071900C8
:1000500029658100C00009022200010100806409B5
:100060000400000103010100092111010001223FE8
:1000700000070581030800010403090436034D004D
:100080006900630072006F0063006800690070001F
:10009000200054006500630068006E006F006C0073
:1000A0006F00670079002C00200049006E0063009B
:1000B0002E002A034A0041004C002000480049005D
:1000C000440020004B00650062006F006100720078
:1000D00064002000440065006D006F0010BF84EFD5
:1000E00000F010BD7AEF00F00F51EA6E0E51E96E8C
:1000F000EF5012000E51F66E0F51F76E10513F0B7C
:10010000F86E0800F55012001200CAEF01F0EC5131
:10011000EE6FED51EF6FF06BF16B9EEF00F00001B1
:10012000FF0E086F0E0E096F092F94EF00F0082FD5
:1001300092EF00F00301F02BD8B4F12BF051EE5DFB
:100140000001086F0301F151EF5D00010811D8A40F
:100150008FEF00F01200E751EA6FE851EB6FA6B2A3
:10016000AFEF00F0EA51A96EA69CA69EA680A8500B
:10017000E96FE95112000301E36FE151E56FE251CC
:10018000E66FA6B2C1EF00F0E551A96EA69CA69E4F
:10019000E351A86EA684E491F2BEE481F29E550E6E
:1001A000A76EAA0EA76EA682E4B1DAEF00F0F29E67
:1001B000DBEF00F0F28EA6941200DB51DF6FDC5112
:1001C000E06FDF51E76FE051E86FABEC00F0030147
:1001D000DD6F010EDB25DF6F000ED8B0010EDC25D0
:1001E000E06FDF51E76FE051E86FABEC00F0030127
:1001F000DE6F1200D551D96FD651DA6FD951E16F48
:10020000DA51E26FD751BBEC00F0010E0301D525A6
:10021000D96F000ED8B0010ED625DA6FD951E16F33
:10022000DA51E26FD851BBEF00F08A928A90938244
:1002300093802BEC01F00301D26BD381A6EC01F08B
:100240000301D22B090ED25DD8A41DEF01F02BECD7
:1002500001F03EEF01F09FEC01F093809FEC01F084
:1002600093829FEC01F081A233EF01F093909FEC19
:1002700001F093929FEF01F02BEF01F09FEC01F062
:1002800093909FEC01F093929FEC01F093829FEC8E
:1002900001F081A249EF01F093809FEF01F0CF6F51
:1002A000D06BD391CFBFD381A6EC01F0D8900301DE
:1002B000CF37D02B080ED05DD8A451EF01F09FECC2
:1002C00001F093809FEC01F093829FEC01F081A2FA
:1002D00067EF01F081A071EF01F00301D19173EF9D
:1002E00001F00301D1819FEC01F093929FEC01F0AA
:1002F0000301D1B17FEF01F000010891120000016C
:1003000008811200CD6BD890CC37B8EC01F0030116
:10031000CC91D4B1CC81CD2B080ECD5DD8A483EF88
:1003200001F0CEA199EF01F0D391A6EC01F09CEF82
:1003300001F0D381A6EC01F00301CC5112000001C1
:10034000130E086F082FA2EF01F01200D3B1ACEF2B
:1003500001F09390ADEF01F093809FEC01F0938258
:1003600081A2B0EF01F09FEC01F093929FEF01F0BA
:1003700093809FEC01F0938281A2BCEF01F09FEC8F
:1003800001F00301D49181B0D4819FEC01F09392EC
:100390009FEF01F015EC01F01AEF02F0C56FC751A5
:1003A000CA6FC651C96F2BEC01F00301C5514FEC68
:1003B00001F00301CA514FEC01F00301C9514FECA8
:1003C00001F02BEC01F00301C529CB6FCB514FECB1
:1003D00001F00301CE9182EC01F00301C86F3EEC05
:1003E00001F00301C8511200BF6FC151C46FC05169
:1003F000C36F2BEC01F00301BF514FEC01F003017F
:10040000C4514FEC01F00301C3514FEC01F0030163
:10041000C2514FEC01F03EEC01F000016A0E086F92
:10042000BB0E096F092F12EF02F0082F10EF02F038
:10043000000012000001166B2BEF03F00301BC6FEC
:10044000B751E16EB851E26EBC51BE6FBD6B3EEF6D
:1004500002F0B951BD2500010E6F000E006E0301C0
:10046000BA51002000010F6F0301BB5100200001B1
:10047000106F6EEC00F0E66E0301BD2BBD51BE5D4A
:10048000D8A429EF02F01200040104BF12000001F9
:100490001551125DD8B452EF02F0D8B052EF02F00D
:1004A0001251156FD880155113550301B66FB6510F
:1004B0000001145DD8B463EF02F0D8B063EF02F02E
:1004C00014510301B66F780E000113250401066F65
:1004D000000E006E040E0020076F0301B6510401E8
:1004E000056F04AD78EF02F0880E046F7AEF02F02A
:1004F000C80E046F0301B651000113271351155D97
:100500001200080E146F136B156B126B0401049D1F
:1005100044EF02F00301B56FB5510401786F080E86
:100520000001146F136B010E156F010E126F0401A1
:10053000049D44EF02F0AD6FAD51D8A4C2EF02F0BC
:10054000180EB76F040EB86FB051B96FB151BA6FD2
:10055000B251BB6FB3511EEC02F0180E0401066FCE
:10056000040E076F0301B4A1B8EF02F00401049D6B
:10057000040104ADBFEF02F0880E046F1200C80E34
:10058000046F1200010EAD5DD8A4EDEF02F0280E4D
:10059000B76F040EB86FB051B96FB151BA6FB251A5
:1005A000BB6FB3511EEC02F0280E04010E6F040E57
:1005B0000F6F0301B35104010D6F0301B4A1E3EF09
:1005C00002F004010C9D04010CADEAEF02F0880E6C
:1005D0000C6F1200C80E0C6F1200020EAD5DD8B485
:1005E0001200030EAD5D1200840E04010013120010
:1005F000080E0401016F100E026F040E036F030E4C
:100600000001185DD8A40CEF03F08C0E0301AC6F51
:100610000401046B0FEF03F0C80E0301AC6F03017C
:10062000AC510401006F1200A86FD890A835AB6FD1
:10063000D890AB37D890AB37AB29AA6F04EE00F057
:10064000AA51E926A951EF6E04EE00F0AB51E9265C
:10065000800EEF6E12000101B081FEEF05F0040183
:10066000F9510301A56F0401FE510301A66F0401B6
:10067000FF510301A76F010EA55DD8B41200020E51
:10068000A55DD8B41200030EA55DD8B41200090E02
:10069000A55DD8A455EF03F0A651A711D8B45BEF20
:1006A00003F0020E0001186F12000A0EA55DD8B407
:1006B00012000B0EA55D12000401F9510301A46F95
:1006C000090EA45DD8A46AEF03F0060E0001186FAE
:1006D00081EF02F0120012000401F9510001116FC4
:1006E000060E115DD8A439EF04F00401FB5103019B
:1006F000A26F0401FA510301A36F0001156B010EF3
:100700000301A25DD8A49AEF03F0120E0001156F49
:10071000780E0301B76F040EB86F040EB96F000EA8
:10072000BA6F000E4009BB6F000115511EEC02F0BC
:100730001CEF04F0020EA25DD8A4B4EF03F0220E69
:100740000001156F780E0301B76F040EB86F560ED7
:10075000B96F000EBA6F000E4009BB6F0001155152
:100760001EEC02F01CEF04F0030EA25DD8A404EF0F
:1007700004F0A351D8A4D0EF03F0040E0001156FCC
:10078000780E0301B76F040EB86F780EB96F000EC4
:10079000BA6F000E4009BB6F000115511EEC02F04C
:1007A000010E0301A35DD8A4E9EF03F0360E0001AA
:1007B000156F780E0301B76F040EB86F7C0EB96F1A
:1007C000000EBA6F000E4009BB6F000115511EEC00
:1007D00002F0020E0301A35DD8A41CEF04F02A0E60
:1007E0000001156F780E0301B76F040EB86FB20EDB
:1007F000B96F000EBA6F000E4009BB6F00011551B2
:100800001EEC02F01CEF04F0220EA25DD8A41CEF37
:1008100004F03F0E0001156F780E0301B76F040E50
:10082000B86F160EB96F000EBA6F000E4009BB6F9D
:10083000000115511EEC02F000011551D8B437EF3C
:1008400004F0080E146F0401FF51D8A42DEF04F03A
:10085000FE510001126F30EF04F0FF0E0001126F25
:10086000030E186F136B0401049D44EF02F0F4EFC4
:1008700002F0050E115DD8A44AEF04F00401FA510C
:100880000001196F010E176F81EC02F0060E0001D6
:10089000186F1200090E115DD8A466EF04F0060E61
:1008A000186F81EC02F0030E0001166F71887184DD
:1008B00071827186400E04010C6F080E096F200EC4
:1008C0000A6F040E0B6F800E086F12000A0E115D86
:1008D000D8A470EF04F0030E186F010E8AEF02F037
:1008E0001151D8A477EF04F0000E8AEF02F0120045
:1008F000D8906C309B6FD8909B33D8909B336CA46E
:100900008EEF04F0D8900401043103019D6FD8905C
:100910009D330F0E9D159C6F98EF04F0D890040145
:10092000003103019D6FD8909D330F0E9D159C6F74
:100930009B51D8A436EF05F00D0E9C5DD8A4D3EFE3
:1009400004F09E6B04EE10F09E51E926EF5000017A
:10095000086F04EEF8F003019E51E92600010851EA
:10096000EF6E03019E2B080E9E5DD8A4A2EF04F04B
:100970006D98F8EC02F0300E0401F81503019D6F3C
:100980009D51D8A4C6EF04F06CEF03F0200E9D5DDE
:10099000D8A4CDEF04F02FEF03F0400E9D5DD8A456
:1009A00063EF05F01200090E9C5DD8A4FBEF04F084
:1009B000030E0001185DD8A4E0EF04F044EF02F04C
:1009C000060E185DD8A4F1EF04F0186B010E175D48
:1009D000D8A463EF05F0020E166F19516E6E176BF7
:1009E0001200050E185DD8B41200040E185DD8A4CC
:1009F000FAEF04F01200020E9C5DD8A413EF05F08C
:100A0000030E0001185DD8A408EF05F044EF02F0D2
:100A1000040E185DD8B41200060E185DD8A463EF5A
:100A200005F0186B1200010E9C5DD8A463EF05F071
:100A3000050E0001185DD8A421EF05F0186BF8EF42
:100A400002F0020E185DD8A42AEF05F05CEC03F06A
:100A5000F8EF02F0030E185DD8A434EF05F0F8ECBF
:100A600002F00001186B1200F8EF02F06CA45EEFC8
:100A700005F0D8909B359F6FD8909F37D8909F37BF
:100A8000040E9F27020E9F259D6F04EE00F09D51DE
:100A9000E926EF50A06F030E9F259D6F04EE00F036
:100AA0009D51E926EF50A16F9F299D6F010E9B5D1F
:100AB000D8A463EF05F00101B0811200080EA96F00
:100AC0009B5114EF03F01200A1AAB4EF05F0A19A14
:100AD00003019A6B68A670EF05F078EC04F0689655
:100AE00003019A2B040E9A5DD8A46AEF05F068A062
:100AF000AAEF05F06A6A686A0001196B716A726A86
:100B0000736A746A756A766A776A786A796A100EA7
:100B10007A6E7B6A7C6A7D6A7E6A7F6A160E706E68
:100B200068A696EF05F0689690EF05F0186B176BC6
:100B30006D98080E0401056F180E066F040E076FFE
:100B4000046B080E016F100E026F040E036F8C0E03
:100B5000006F689068BA689A68B8689868BC689CC2
:100B600068A2B4EF05F068921200030E0001165D52
:100B7000D8A4BDEF05F00881120008911200996F0A
:100B80000101B0B1C8EF05F064EC05F0C0EF05F06D
:100B9000B09103019451AE6F9551AF6F9651B06F04
:100BA0009751B16F9851B26F9951B36FB491010ED3
:100BB0009BEF02F00001166B6D6A140E6F6E6B0EE8
:100BC000696EA09A686A6D6A6D86010E166F1200D2
:100BD0008A6F8A518C6F8D6B8B518E6F8F6B906B80
:100BE000916B926B936B080E946F956B8C0E966F56
:100BF000030E976F986B080EBFEF05F0C26A0F0ED9
:100C0000C16EC06A070EB46E8D6A8D6A8B6AFF0E64
:100C1000966E0A0EC16E938A9598959A959C959EAC
:100C2000939493969398939A939C939E9290929276
:100C3000929492969298929A9690968496829480A4
:100C400094829484958093909594010E00011A6F7C
:100C5000010E1B6F1C6B010E1D6F010E1E6F010E2E
:100C60001F6F206B246B256B266B276B286B356BF6
:100C7000366B376B386B396B6A6B6B6B6C6B6D6B90
:100C80006E6B6F6B706B716B080E726F070E736F0C
:100C9000746B756B766B776B786B796B216B226BF2
:100CA000236B290E0301006F0201586B350E0301FF
:100CB000016F0201596B2B0E0301026F02015A6B87
:100CC000390E0301036F02015B6B020E0301046F17
:100CD000010E02015C6F010E0301056F010E02019E
:100CE0005D6F1E0E0301066F02015E6B140E0301A1
:100CF000076F02015F6B040E0301086F0201606B56
:100D0000640E0301096F0201616B080E03010A6F93
:100D1000010E0201626F3A0E03010B6F0201636B59
:100D20001F0E03010C6F0201646B1A0E03010D6F9D
:100D30000201656B160E03010E6F0201666B1D0E3C
:100D400003010F6F0201676B040E0301106F010EA8
:100D50000201686F3B0E0301116F0201696B200EE7
:100D60000301126F02016A6B080E0301136F020187
:100D70006B6B070E0301146F02016C6B1B0E0301FA
:100D8000156F02016D6B3C0E0301166F02016E6B55
:100D9000210E0301176F02016F6B150E0301186F0F
:100DA0000201706B090E0301196F0201716B060ECF
:100DB00003011A6F0201726B3D0E03011B6F0201EA
:100DC000736B220E03011C6F0201746B170E03017B
:100DD0001D6F0201756B0A0E03011E6F0201766B17
:100DE000190E03011F6F0201776B3E0E0301206F86
:100DF0000201786B230E0301216F0201796B1C0E37
:100E00000301226F02017A6B0B0E0301236F0201B3
:100E10007B6B050E0301246F02017C6B2C0E03011A
:100E2000256F02017D6B3F0E0301266F02017E6B71
:100E3000240E0301276F02017F6B180E0301286F38
:100E40000201806B0D0E0301296F0201816B110EEF
:100E500003012A6F0201826B400E03012B6F020116
:100E6000836B250E03012C6F0201846B0C0E0301B2
:100E70002D6F0201856B0E0E03012E6F0201866B32
:100E8000100E03012F6F0201876B410E0301306FBB
:100E90000201886B260E0301316F0201896B120E6D
:100EA0000301326F02018A6B0F0E0301336F0201DF
:100EB0008B6B360E0301346F02018C6B400E030105
:100EC000356F010E02018D6F420E0301366F020174
:100ED0008E6B270E0301376F02018F6B130E030118
:100EE000386F0201906B330E0301396F0201916B71
:100EF000370E03013A6F0201926B800E03013B6FC4
:100F0000010E0201936F430E03013C6F0201946BCB
:100F10002D0E03013D6F0201956B2F0E03013E6FF5
:100F20000201966B340E03013F6F0201976B380E7E
:100F30000301406F0201986B440E0301416F0201EF
:100F4000996B2E0E0301426F02019A6B300E030162
:100F5000436F02019B6B310E0301446F02019C6BD6
:100F6000650E0301456F02019D6B450E0301466F3F
:100F700002019E6B2A0E0301476F02019F6B280E30
:100F80000301486F0201A06B200E0301496F010E9F
:100F90000201A16F100E03014A6F010E0201A26F40
:100FA000460E03014B6F0201A36B490E03014C6F08
:100FB0000201A46B4C0E03014D6F0201A56B500E94
:100FC00003014E6F0201A66B470E03014F6F020132
:100FD000A76B4A0E0301506F0201A86B4D0E03016F
:100FE000516F0201A96B520E0301526F0201AA6BED
:100FF000510E0301536F0201AB6B480E0301546F96
:101000000201AC6B4B0E0301556F0201AD6B4E0E2E
:101010000301566F0201AE6B4F0E0301576F0201C1
:10102000AF6BDAEC05F00001F86BF96BF8510301D6
:10103000E76F0001F9510301E86FABEC00F000012C
:10104000FA6FFA51ED6FED51E16F010EFB6FFC6B22
:10105000FB510301E76F0001FC510301E86FABECAA
:1010600000F00001FD6FFD51ED6FED51E56F020ED7
:10107000FE6FFF6BFE510301E76F0001FF5103019B
:10108000E86FABEC00F00101D06FD0510001ED6FC3
:10109000ED51E96F030E0101D16FD26BD151030104
:1010A000E76F0101D2510301E86FABEC00F00101E1
:1010B000D36FD3510001ED6FED51E26F040E0101CA
:1010C000D46FD56BD4510301E76F0101D5510301F2
:1010D000E86FABEC00F00101D66FD6510001ED6F67
:1010E000ED51E66F050E0101D76FD86BD7510301A3
:1010F000E76F0101D8510301E86FABEC00F001018B
:10110000D96FD9510001ED6FED51EA6F060E010163
:10111000DA6FDB6BDA510301E76F0101DB51030189
:10112000E86FABEC00F00101DC6FDC510001ED6F0A
:10113000ED51E36F070E0101DD6FDE6BDD51030141
:10114000E76F0101DE510301E86FABEC00F0010134
:10115000DF6FDF510001ED6FED51E76F080E010108
:10116000E06FE16BE0510301E76F0101E151030121
:10117000E86FABEC00F00101E26FE2510001ED6FAE
:10118000ED51EB6F090E0101E36FE46BE3510301D5
:10119000E76F0101E4510301E86FABEC00F00101DE
:1011A000E56FE5510001ED6FED51E46F0A0E0101AD
:1011B000E66FE76BE6510301E76F0101E7510301B9
:1011C000E86FABEC00F00101E86FE8510001ED6F52
:1011D000ED51E86F0B0E0101E96FEA6BE951030174
:1011E000E76F0101EA510301E86FABEC00F0010188
:1011F000EB6FEB510001ED6FED51EC6F0C0E010147
:10120000EC6FED6BEC510301E76F0101ED51030150
:10121000E86FABEC00F00101EE6FEE510001ED6FF5
:10122000ED51386FE151F16FE551F26FE951F36F14
:10123000140E0101EF6FF06BEF510301DB6F010141
:10124000F0510301DC6FDDEC00F00301DD51010121
:10125000F16F0301DE510101F26FF1510001ED6FF9
:101260000101F2510001EE6FED513A6FEE513B6F0B
:10127000160E0101F36FF46BF3510301DB6F0101F3
:10128000F4510301DC6FDDEC00F00301DD510101DD
:10129000F56F0301DE510101F66FF5510001ED6FAD
:1012A0000101F6510001EE6FED513C6FEE513D6FC3
:1012B000180E0101F76FF86BF7510301DB6F0101A5
:1012C000F8510301DC6FDDEC00F00301DD51010199
:1012D000F96F0301DE510101FA6FF9510001ED6F61
:1012E0000101FA510001EE6FED513E6FEE513F6F7B
:1012F0001A0E0101FB6FFC6BFB510301DB6F010157
:10130000FC510301DC6FDDEC00F00301DD51010154
:10131000FD6F0301DE510101FE6FFD510001ED6F14
:101320000101FE510001EE6FED51406FEE51416F32
:101330001C0E0201B06FB16BB0510301DB6F0201F3
:10134000B1510301DC6FDDEC00F00301DD5102015E
:10135000B26F0301DE510201B36FB2510001ED6FB4
:101360000201B3510001EE6FED51426FEE51436F38
:101370001E0E0201B46FB56BB4510301DB6F0201A5
:10138000B5510301DC6FDDEC00F00301DD5102011A
:10139000B66F0301DE510201B76FB6510001ED6F68
:1013A0000201B7510001EE6FED51446FEE51456FF0
:1013B000200E0201B86FB96BB8510301DB6F020157
:1013C000B9510301DC6FDDEC00F00301DD510201D6
:1013D000BA6F0301DE510201BB6FBA510001ED6F1C
:1013E0000201BB510001EE6FED51466FEE51476FA8
:1013F000220E0201BC6FBD6BBC510301DB6F020109
:10140000BD510301DC6FDDEC00F00301DD51020191
:10141000BE6F0301DE510201BF6FBE510001ED6FCF
:101420000201BF510001EE6FED51486FEE51496F5F
:10143000240E0201C06FC16BC0510301DB6F0201BA
:10144000C1510301DC6FDDEC00F00301DD5102014D
:10145000C26F0301DE510201C36FC2510001ED6F83
:101460000201C3510001EE6FED514A6FEE514B6F17
:10147000260E0201C46FC56BC4510301DB6F02016C
:10148000C5510301DC6FDDEC00F00301DD51020109
:10149000C66F0301DE510201C76FC6510001ED6F37
:1014A0000201C7510001EE6FED514C6FEE514D6FCF
:1014B000280E0201C86FC96BC8510301DB6F02011E
:1014C000C9510301DC6FDDEC00F00301DD510201C5
:1014D000CA6F0301DE510201CB6FCA510001ED6FEB
:1014E0000201CB510001EE6FED514E6FEE514F6F87
:1014F0002A0E0201CC6FCD6BCC510301DB6F0201D0
:10150000CD510301DC6FDDEC00F00301DD51020180
:10151000CE6F0301DE510201CF6FCE510001ED6F9E
:101520000201CF510001EE6FED51506FEE51516F3E
:101530002C0E0201D06FD16BD051DA6FD151DB6F1D
:10154000DA510301DB6F0201DB510301DC6FDDECDB
:1015500000F00301DD510201D66F0301DE510201EB
:10156000D76F020ED025DA6F000ED121DB6FDA5172
:101570000301DB6F0201DB510301DC6FDDEC00F0E6
:101580000301DD510201D86F0301DE510201D96F61
:10159000D651D26FD751D36FD851D46FD951D56F9F
:1015A000D2510001ED6F0201D3510001EE6F020133
:1015B000D4510001EF6F0201D5510001F06FED51E0
:1015C0006A6FEE516B6FEF516C6FF0516D6F526B34
:1015D000536B960E546F556B2C0E566F010E576F52
:1015E000C20E586F010E596F580E5A6F020E5B6F84
:1015F000EE0E5C6F020E5D6F840E5E6F030E5F6F0A
:101600001A0E606F040E616FB00E626F040E636F8E
:10161000460E646F050E656FDC0E666F050E676F14
:10162000720E686F060E696F0B0E296F110E2A6F0E
:10163000160E2B6F1B0E2C6F200E2D6F260E2E6F8D
:101640002B0E2F6F300E306F360E316F3C0E326F17
:10165000410E336F460E346F8EEF0EF00301876B31
:10166000000135517A6F0301886B00EE82F08751DB
:10167000E926EF500001086FFF0E085DD8B459EF5E
:101680000BF0D8B059EF0BF0020E03018725896FDC
:1016900000EE82F08751E926EF500001086F00EE5E
:1016A0007AF003018951E92600010851EF6E62EFDB
:1016B0000BF0020E03018725896F00EE7AF0895145
:1016C000E926EF6A0301872B882B060E885DD8A4D4
:1016D00035EF0BF0080E946F956B7A0E966F976B43
:1016E000986B080EBFEF05F00301846F00EE89F0E0
:1016F0008451E926EF6A0001776B786B02EE58F0AF
:1017000003018451E926EF500001086F010E085DC6
:10171000D8A49BEF0BF003EE00F003018451E926FF
:10172000EF500001086F081D0301856F855100010E
:1017300035172EEF0BF00301866B00EE82F00001EF
:101740007751E926EF50086F03EE00F00301845152
:10175000E926EF500001096F0851095DD8A4B3EFE5
:101760000BF07751786F772B0301862B060E865D81
:10177000D8A49DEF0BF0060E0001785DD8B4D7EF2A
:101780000BF0D8B0D7EF0BF078290301856F00EE8E
:1017900082F08551E926EF500001086F00EE82F0DB
:1017A0007851E9260851EF6E782BBBEF0BF02EEF46
:1017B0000BF00301806F050E816F00EE89F0805100
:1017C000E926010EEF6E02EE58F08051E926EF5047
:1017D0000001086F010E085DD8A4FBEF0BF003EECB
:1017E00000F003018051E926EF500001086F085115
:1017F00035132EEF0BF00301836B8105826F00EE32
:1018000082F08251E926EF500001086F00EE82F06D
:1018100003018151E92600010851EF6E03018107A0
:10182000832B060E835DD8A4FDEF0BF003EE00F0D2
:101830008051E926EF500001826F2EEF0BF003017B
:101840007B6F7D6B00016E510301C06F00016F5112
:101850000301C16F7B51C26FA00EF4EC01F00001D7
:101860006E2BD8B46F2B6E510301C06F00016F5106
:101870000301C16F7C51C26FA00EF4EC01F00001B6
:101880006E2BD8B46F2BFE0E392503017D6FD890D7
:101890007D357E6FD8907D357F6F00EE3AF07F51B9
:1018A000E926EF500001086FE92AEF50096F010E99
:1018B00008250A6F000ED8B0010E09250B6F00EE47
:1018C0003AF003017E51E92600010A51EF6EE92A40
:1018D0000B51EF6E939012000301796F000172516A
:1018E0000301C06F000173510301C16F7951C26FD1
:1018F000A00EF4EC01F00001722BD8B4732B7251DE
:101900000301C06F000173510301C16F7A51C26FAF
:10191000A00EF4EC01F00001722BD8B4732B6A2BEB
:10192000D8B46B2BD8B46C2BD8B46D2B9390120019
:101930000301746F756B766B776BD8900301743508
:10194000786F00EE3AF07851E926EF500001086F09
:10195000E92AEF50096F006A0050095DD8A4B5EF7D
:101960000CF0030177510001085DD8B4E9EF0CF0E9
:10197000D8A0E9EF0CF070510301C66F000171515E
:101980000301C76FA00ECEEC01F00301756F0001DB
:10199000702BD8B4712B70510301C66F00017151C7
:1019A0000301C76FA00ECEEC01F00301766F0001BA
:1019B000702BD8B4712B0301772B76518B6F755137
:1019C000E8EC05F003018B6B7551E8EC05F09DEF39
:1019D0000CF0939012000301716B726B736B006AD1
:1019E000005000016D5DD8A404EF0DF000506C5D57
:1019F000D8A404EF0DF000506B5DD8A404EF0DF0F7
:101A00000301735100016A5DD8B438EF0DF0D8A01E
:101A100038EF0DF070510301C66F000171510301E1
:101A2000C76FA00ECEEC01F00301716F0001702BA7
:101A3000D8B4712B70510301C66F000171510301BD
:101A4000C76FA00ECEEC01F00301726F0001702B86
:101A5000D8B4712B0301732B72518B6F7151E8EC69
:101A600005F003018B6B7151E8EC05F0EFEF0CF022
:101A7000939012000301606F800E636F646B800EA1
:101A8000636F656B61516315646F010E645DD8B45B
:101A90004DEF0DF0D8A061EF0DF08A80686B00006B
:101AA000682B010E685DD8A44FEF0DF08A90696B2A
:101AB0000000692B010E695DD8A458EF0DF06BEFA3
:101AC0000DF08A808A906A6B00006A2B020E6A5DB4
:101AD000D8A464EF0DF0D8906333652B080E655DD4
:101AE000D8A442EF0DF0800E636F666B60516315F2
:101AF000646F010E645DD8B481EF0DF0D8A095EF4E
:101B00000DF08A806B6B00006B2B010E6B5DD8A40F
:101B100083EF0DF08A906C6B00006C2B010E6C5DF6
:101B2000D8A48CEF0DF09FEF0DF08A808A906D6B3A
:101B300000006D2B020E6D5DD8A498EF0DF0D890CB
:101B40006333662B080E665DD8A476EF0DF0800E29
:101B5000636F676B62516315646F010E645DD8B487
:101B6000B5EF0DF0D8A0C9EF0DF08A806E6B0000C4
:101B70006E2B010E6E5DD8A4B7EF0DF08A906F6BDF
:101B800000006F2B010E6F5DD8A4C0EF0DF0D3EFF6
:101B90000DF08A808A90706B0000702B020E705DD1
:101BA000D8A4CCEF0DF0D8906333672B080E675D97
:101BB000D8A4AAEF0DF012000201F66F800EF96FA3
:101BC000FA6BFB6B800EF96FFC6BF751F915FA6F2E
:101BD000010EFA5DD8B4F0EF0DF0D8A005EF0EF0CD
:101BE0008A80FF6B0000FF2B010EFF5DD8A4F2EF8F
:101BF0000DF08A900301586B0000582B010E585DC0
:101C0000D8A4FCEF0DF010EF0EF08A808A9003014B
:101C1000596B0000592B020E595DD8A409EF0EF044
:101C2000D8900201F933FC2B080EFC5DD8A4E5EF37
:101C30000DF0800EF96FFD6BF651F915FA6F010E7C
:101C4000FA5DD8B427EF0EF0D8A03CEF0EF08A80F2
:101C500003015A6B00005A2B010E5A5DD8A42AEFDB
:101C60000EF08A905B6B00005B2B010E5B5DD8A4CD
:101C700033EF0EF047EF0EF08A808A9003015C6B21
:101C800000005C2B020E5C5DD8A440EF0EF0D890F3
:101C90000201F933FD2B080EFD5DD8A41CEF0EF0F8
:101CA000800EF96FFE6BF851F915FA6F010EFA5DAF
:101CB000D8B45EEF0EF0D8A073EF0EF08A80030167
:101CC0005D6B00005D2B010E5D5DD8A461EF0EF031
:101CD0008A905E6B00005E2B010E5E5DD8A46AEFF9
:101CE0000EF07EEF0EF08A808A9003015F6B000099
:101CF0005F2B020E5F5DD8A477EF0EF0D890020143
:101D0000F933FE2B080EFE5DD8A453EF0EF0FB2B2B
:101D10001B0EFB5DD8A4E2EF0DF01200E5510201AD
:101D2000F76F0001E9510201F86F0001E151DCECAD
:101D30000DF08C940001F46BF56B00EE89F0F4511A
:101D4000E926EF6A01EE00F0F451E926EF6A01EEB0
:101D500058F0F451E926EF6A02EE00F0F451E9265A
:101D6000EF6AF42BF52B580EF55DD8A49DEF0EF01D
:101D7000F46BF66B00EE82F0F451E926FF0EEF6E85
:101D8000F42BF62B070EF65DD8A4BAEF0EF0F46B29
:101D9000F76B00EE7AF0F451E926FF0EEF6EF42BAC
:101DA000F72B080EF75DD8A4C9EF0EF064EC05F030
:101DB000B5EC05F0000108B1E2EF0EF00101B099B9
:101DC000E4EF0EF00101B089B0A9D6EF0EF00001EA
:101DD000796B8C88020E0301EC6FED6B87EC00F0E1
:101DE00084A2FCEF0EF001EE00F000017951E9262B
:101DF000010EEF6E02EF0FF001EE00F000017951DD
:101E0000E926EF6A792B84A40EEF0FF001EE00F0C3
:101E10007951E926010EEF6E13EF0FF001EE00F09D
:101E20007951E926EF6A792B82A01FEF0FF001EEBE
:101E300000F07951E926010EEF6E24EF0FF001EE6C
:101E400000F07951E926EF6A792B82A230EF0FF08A
:101E500001EE00F07951E926010EEF6E35EF0FF03B
:101E600001EE00F07951E926EF6A792B82A441EF67
:101E70000FF001EE00F07951E926010EEF6E46EF0A
:101E80000FF001EE00F07951E926EF6A792B83A07B
:101E900052EF0FF001EE00F07951E926010EEF6EDE
:101EA00057EF0FF001EE00F07951E926EF6A792B38
:101EB0008C988C8A020E0301EC6FED6B87EC00F0BE
:101EC00084A46CEF0FF001EE00F000017951E926D7
:101ED000010EEF6E72EF0FF001EE00F0000179518C
:101EE000E926EF6A792B82A07EEF0FF001EE00F079
:101EF0007951E926010EEF6E83EF0FF001EE00F04D
:101F00007951E926EF6A792B82A28FEF0FF001EE6B
:101F100000F07951E926010EEF6E94EF0FF001EE1B
:101F200000F07951E926EF6A792B82A4A0EF0FF037
:101F300001EE00F07951E926010EEF6EA5EF0FF0EA
:101F400001EE00F07951E926EF6A792B83A0B1EF19
:101F50000FF001EE00F07951E926010EEF6EB6EFB9
:101F60000FF001EE00F07951E926EF6A792B8C9A97
:101F70008C8C020E0301EC6FED6B87EC00F084A2F9
:101F8000CBEF0FF001EE00F000017951E926010ED0
:101F9000EF6ED1EF0FF001EE00F000017951E9266C
:101FA000EF6A792B84A4DDEF0FF001EE00F0795198
:101FB000E926010EEF6EE2EF0FF001EE00F079512D
:101FC000E926EF6A792B82A0EEEF0FF001EE00F028
:101FD0007951E926010EEF6EF3EF0FF001EE00F0FC
:101FE0007951E926EF6A792B82A2FFEF0FF001EE1B
:101FF00000F07951E926010EEF6E04EF10F001EECA
:1020000000F07951E926EF6A792B82A410EF10F0E5
:1020100001EE00F07951E926010EEF6E15EF10F098
:1020200001EE00F07951E926EF6A792B83A021EFC8
:1020300010F001EE00F07951E926010EEF6E26EF67
:1020400010F001EE00F07951E926EF6A792B8C9CB3
:102050008C8E020E0301EC6FED6B87EC00F084A216
:102060003BEF10F001EE00F000017951E926010E7E
:10207000EF6E41EF10F001EE00F000017951E9261A
:10208000EF6A792B84A44DEF10F001EE00F0795146
:10209000E926010EEF6E52EF10F001EE00F07951DB
:1020A000E926EF6A792B82A05EEF10F001EE00F0D6
:1020B0007951E926010EEF6E63EF10F001EE00F0AA
:1020C0007951E926EF6A792B82A26FEF10F001EEC9
:1020D00000F07951E926010EEF6E74EF10F001EE79
:1020E00000F07951E926EF6A792B82A480EF10F095
:1020F00001EE00F07951E926010EEF6E85EF10F048
:1021000001EE00F07951E926EF6A792B8C9E8A84E2
:10211000020E0301EC6FED6B87EC00F084A29AEFE6
:1021200010F001EE00F000017951E926010EEF6E8A
:10213000A0EF10F001EE00F000017951E926EF6AFE
:10214000792B84A4ACEF10F001EE00F07951E92670
:10215000010EEF6EB1EF10F001EE00F07951E926BB
:10216000EF6A792B82A0BDEF10F001EE00F07951FB
:10217000E926010EEF6EC2EF10F001EE00F079518A
:10218000E926EF6A792B82A2CEEF10F001EE00F083
:102190007951E926010EEF6ED3EF10F001EE00F059
:1021A0007951E926EF6A792B82A4DFEF10F001EE76
:1021B00000F07951E926010EEF6EE4EF10F001EE28
:1021C00000F07951E926EF6A792B8A948A86020E0B
:1021D0000301EC6FED6B87EC00F084A2F9EF10F0D7
:1021E00001EE00F000017951E926010EEF6EFFEFDC
:1021F00010F001EE00F000017951E926EF6A792B29
:1022000084A40BEF11F001EE00F07951E926010EE4
:10221000EF6E10EF11F001EE00F07951E926EF6A50
:10222000792B82A01CEF11F001EE00F07951E92624
:10223000010EEF6E21EF11F001EE00F07951E92669
:10224000EF6A792B82A22DEF11F001EE00F07951A7
:10225000E926010EEF6E32EF11F001EE00F0795138
:10226000E926EF6A792B82A43EEF11F001EE00F02F
:102270007951E926010EEF6E43EF11F001EE00F007
:102280007951E926EF6A792B8A968A88020E030132
:10229000EC6FED6B87EC00F084A258EF11F001EECB
:1022A00000F000017951E926010EEF6E5EEF11F0AA
:1022B00001EE00F000017951E926EF6A792B84A440
:1022C0006AEF11F001EE00F07951E926010EEF6E90
:1022D0006FEF11F001EE00F07951E926EF6A792BEA
:1022E00082A07BEF11F001EE00F07951E926010E9A
:1022F000EF6E80EF11F001EE00F07951E926EF6A00
:10230000792B82A28CEF11F001EE00F07951E926D1
:10231000010EEF6E91EF11F001EE00F07951E92618
:10232000EF6A792B82A49DEF11F001EE00F0795154
:10233000E926010EEF6EA2EF11F001EE00F07951E7
:10234000E926EF6A792B83A0AEEF11F001EE00F0E1
:102350007951E926010EEF6EB3EF11F001EE00F0B6
:102360007951E926EF6A792B8A988A8A020E03014D
:10237000EC6FED6B87EC00F084A2C8EF11F001EE7A
:1023800000F000017951E926010EEF6ECEEF11F059
:1023900001EE00F000017951E926EF6A792B84A45F
:1023A000DAEF11F001EE00F07951E926010EEF6E3F
:1023B000DFEF11F001EE00F07951E926EF6A792B99
:1023C00082A0EBEF11F001EE00F07951E926010E49
:1023D000EF6EF0EF11F001EE00F07951E926EF6AAF
:1023E000792B82A2FCEF11F001EE00F07951E92681
:1023F000010EEF6E01EF12F001EE00F07951E926C7
:10240000EF6A792B82A40DEF12F001EE00F0795102
:10241000E926010EEF6E12EF12F001EE00F0795195
:10242000E926EF6A792B8A9A8A8C020E0301EC6FF7
:10243000ED6B87EC00F084A227EF12F001EE00F0C4
:1024400000017951E926010EEF6E2DEF12F001EE39
:1024500000F000017951E926EF6A792B84A439EF65
:1024600012F001EE00F07951E926010EEF6E3EEF19
:1024700012F001EE00F07951E926EF6A792B82A083
:102480004AEF12F001EE00F07951E926010EEF6EED
:102490004FEF12F001EE00F07951E926EF6A792B47
:1024A00082A25BEF12F001EE00F07951E926010EF5
:1024B000EF6E60EF12F001EE00F07951E926EF6A5D
:1024C000792B82A46CEF12F001EE00F07951E9262D
:1024D000010EEF6E71EF12F001EE00F07951E92676
:1024E000EF6A792B8A9C8A8E020E0301EC6FED6BEA
:1024F00087EC00F084A286EF12F001EE00F00001FC
:102500007951E926010EEF6E8CEF12F001EE00F02A
:1025100000017951E926EF6A792B84A498EF12F033
:1025200001EE00F07951E926010EEF6E9DEF12F0F9
:1025300001EE00F07951E926EF6A792B82A0A9EF2C
:1025400012F001EE00F07951E926010EEF6EAEEFC8
:1025500012F001EE00F07951E926EF6A792B82A2A0
:10256000BAEF12F001EE00F07951E926010EEF6E9C
:10257000BFEF12F001EE00F07951E926EF6A792BF6
:1025800082A4CBEF12F001EE00F07951E926010EA2
:10259000EF6ED0EF12F001EE00F07951E926EF6A0C
:1025A000792B83A0DCEF12F001EE00F07951E926DF
:1025B000010EEF6EE1EF12F001EE00F07951E92625
:1025C000EF6A792B8A9E8980020E0301EC6FED6B16
:1025D00087EC00F084A2F6EF12F001EE00F00001AB
:1025E0007951E926010EEF6EFCEF12F001EE00F0DA
:1025F00000017951E926EF6A792B84A408EF13F0E2
:1026000001EE00F07951E926010EEF6E0DEF13F0A7
:1026100001EE00F07951E926EF6A792B82A019EFDB
:1026200013F001EE00F07951E926010EEF6E1EEF76
:1026300013F001EE00F07951E926EF6A792B82A2BE
:102640002AEF13F001EE00F07951E926010EEF6E4A
:102650002FEF13F001EE00F07951E926EF6A792BA4
:1026600082A43BEF13F001EE00F07951E926010E50
:10267000EF6E40EF13F001EE00F07951E926EF6ABA
:10268000792B83A04CEF13F001EE00F07951E9268D
:10269000010EEF6E51EF13F001EE00F07951E926D3
:1026A000EF6A792B89908982020E0301EC6FED6B42
:1026B00087EC00F084A266EF13F001EE00F0000159
:1026C0007951E926010EEF6E6CEF13F001EE00F088
:1026D00000017951E926EF6A792B84A478EF13F091
:1026E00001EE00F07951E926010EEF6E7DEF13F057
:1026F00001EE00F07951E926EF6A792B82A089EF8B
:1027000013F001EE00F07951E926010EEF6E8EEF25
:1027100013F001EE00F07951E926EF6A792B82A2DD
:102720009AEF13F001EE00F07951E926010EEF6EF9
:102730009FEF13F001EE00F07951E926EF6A792B53
:1027400082A4ABEF13F001EE00F07951E926010EFF
:10275000EF6EB0EF13F001EE00F07951E926EF6A69
:10276000792B89928984020E0301EC6FED6B87EC63
:1027700000F084A2C5EF13F001EE00F000017951E2
:10278000E926010EEF6ECBEF13F001EE00F0000131
:102790007951E926EF6A792B84A4D7EF13F001EE83
:1027A00000F07951E926010EEF6EDCEF13F001EE37
:1027B00000F07951E926EF6A792B82A0E8EF13F057
:1027C00001EE00F07951E926010EEF6EEDEF13F006
:1027D00001EE00F07951E926EF6A792B82A2F9EF38
:1027E00013F001EE00F07951E926010EEF6EFEEFD5
:1027F00013F001EE00F07951E926EF6A792B83A0FE
:102800000AEF14F001EE00F07951E926010EEF6EA7
:102810000FEF14F001EE00F07951E926EF6A792B01
:1028200089948986020E0301EC6FED6B87EC00F052
:1028300084A224EF14F001EE00F000017951E926A2
:10284000010EEF6E2AEF14F001EE00F00001795155
:10285000E926EF6A792B84A436EF14F001EE00F03C
:102860007951E926010EEF6E3BEF14F001EE00F016
:102870007951E926EF6A792B82A047EF14F001EE37
:1028800000F07951E926010EEF6E4CEF14F001EEE5
:1028900000F07951E926EF6A792B82A258EF14F003
:1028A00001EE00F07951E926010EEF6E5DEF14F0B4
:1028B00001EE00F07951E926EF6A792B83A069EFE8
:1028C00014F001EE00F07951E926010EEF6E6EEF83
:1028D00014F001EE00F07951E926EF6A792B899620
:1028E0008988020E0301EC6FED6B87EC00F084A287
:1028F00083EF14F001EE00F000017951E926010E9A
:10290000EF6E89EF14F001EE00F000017951E92635
:10291000EF6A792B84A495EF14F001EE00F0795161
:10292000E926010EEF6E9AEF14F001EE00F07951F6
:10293000E926EF6A792B82A0A6EF14F001EE00F0F1
:102940007951E926010EEF6EABEF14F001EE00F0C5
:102950007951E926EF6A792B82A4B7EF14F001EEE2
:1029600000F07951E926010EEF6EBCEF14F001EE94
:1029700000F07951E926EF6A792B8998898A020E4D
:102980000301EC6FED6B87EC00F084A2D1EF14F043
:1029900001EE00F000017951E926010EEF6ED7EF4C
:1029A00014F001EE00F000017951E926EF6A792B6D
:1029B00084A4E3EF14F001EE00F07951E926010E52
:1029C000EF6EE8EF14F001EE00F07951E926EF6ABE
:1029D000792B82A0F4EF14F001EE00F07951E92692
:1029E000010EEF6EF9EF14F001EE00F07951E926D7
:1029F000EF6A792B82A205EF15F001EE00F0795114
:102A0000E926010EEF6E0AEF15F001EE00F07951A4
:102A1000E926EF6A792B82A416EF15F001EE00F09B
:102A20007951E926010EEF6E1BEF15F001EE00F073
:102A30007951E926EF6A792B899A8D80020E03017C
:102A4000EC6FED6B87EC00F084A230EF15F001EE37
:102A500000F000017951E926010EEF6E36EF15F016
:102A600001EE00F000017951E926EF6A792B84A488
:102A700042EF15F001EE00F07951E926010EEF6EFC
:102A800047EF15F001EE00F07951E926EF6A792B56
:102A900082A053EF15F001EE00F07951E926010E06
:102AA000EF6E58EF15F001EE00F07951E926EF6A6C
:102AB000792B82A464EF15F001EE00F07951E9263C
:102AC000010EEF6E69EF15F001EE00F07951E92685
:102AD000EF6A8D90766B0101FF6B01EE00F0000153
:102AE0007651E926EF50086F010E085D0101BB9B8E
:102AF000D8B4BB8B01EE58F000017651E926EF50B7
:102B00000101BB8DD8A4BB9DBB8FBBBBBBADBB9F25
:102B1000BBAF5DEF1BF00001256B266B00EE89F06B
:102B20007651E926EF50D8A48FEF1BF0540E765D56
:102B3000D8A414EF16F0010E746F3651D8A4B0EF7C
:102B400015F0010E366FE6510201F76F0001EA51F0
:102B50000201F86F0001E251DCEC0DF014EF16F009
:102B6000E5510201F76F0001E9510201F86F000120
:102B7000E151DCEC0DF0010E0001395DD8B411EF2C
:102B800016F0D8A011EF16F0FE0E3925ED6FD89093
:102B9000ED35EE6F140EEE25276FFE0E3925286FEA
:102BA000D8902835ED6F27510201DC6FDD6B00EE08
:102BB0003AF00001ED51E926EF500201DE6FE92AFB
:102BC000EF50DF6FE06BE16BDC51E26FDD51E36FE3
:102BD000E2510301D56F0201E3510301D66F0201F7
:102BE000DE510301D76F0201DF510301D86FFAEC08
:102BF00000F0020E0201DC25E26F000EDD21E36F22
:102C0000E2510301D56F0201E3510301D66F0201C6
:102C1000E0510301D76F0201E1510301D86FFAECD3
:102C200000F00001366B396B0E0E0001765DD8A402
:102C300042EF16F0010E365D0101BC9BD8B4BC8B8F
:102C4000010E0001395D0101BC9DD8B42AEF16F0D8
:102C5000D8A0BC8DBC8FBCBBBCADBC9FBCAF42EF91
:102C600016F0010E0001396FE7510201F76F000104
:102C7000EB510201F86F0001E351DCEC0DF0010EA5
:102C80000001746F2E0E0001765DD8A470EF16F06F
:102C9000010E365D0101BD93D8B4BD8300013951E9
:102CA0000101BD85D8A4BD95BD87BDB3BDA5BD97A8
:102CB000BDA770EF16F0010E0001746F366B080EA1
:102CC000706F070E716FE5510201F76F0001E95156
:102CD0000201F86F0001E151DCEC0DF0EBEC0CF0BF
:102CE000330E0001765DD8A4FCEF16F0010E365DC0
:102CF0000101BD9BD8B4BD8B000139510101BD8DCF
:102D0000D8A4BD9DBD8FBDBBBDADBD9FBDAFFCEF0C
:102D100016F0010E0001746F366BE5510201F76F7A
:102D20000001E9510201F86F0001E151DCEC0DF006
:102D300000013851D8A4B2EF16F0010E386F0C0E16
:102D40000301E16FE26B00013851BBEC00F00001C0
:102D50006A6B6B6B6C6B6D6B080E726F070E736F2B
:102D6000FCEF16F0386B0C0E0301E16FE26B000113
:102D70003851BBEC00F02C0E0201E56FE66B000150
:102D80006A510201E76F00016B510201E86F000117
:102D90006C510201E96F00016D510201EA6FE551CA
:102DA000EB6FE651EC6FEB510301D56F0201EC5173
:102DB0000301D66F0201E7510301D76F0201E85109
:102DC0000301D86FFAEC00F0020E0201E525EB6F6B
:102DD000000EE621EC6FEB510301D56F0201EC51BF
:102DE0000301D66F0201E9510301D76F0201EA51D5
:102DF0000301D86FFAEC00F0180E0001765DD8A43C
:102E000022EF17F0010E365D0101BE95D8B4BE85E4
:102E1000000139510101BE87D8A4BE97BE89BEB555
:102E2000BEA7BE99BEA922EF17F0010E0001746F74
:102E3000010E375DD8A420EF17F0376B22EF17F0A3
:102E4000010E376F1E0E0001765DD8A448EF17F013
:102E5000010E365D0101BE9FD8B4BE8F000139510D
:102E60000101BF81D8A4BF91BF83BEBFBFA1BF93E3
:102E7000BFA348EF17F0010E0001746F020E375D1B
:102E8000D8A446EF17F0376B48EF17F0020E376FF4
:102E9000240E0001765DD8A46EEF17F0010E365DAA
:102EA0000101BF99D8B4BF89000139510101BF8B1D
:102EB000D8A4BF9BBF8DBFB9BFABBF9DBFAD6EEFE9
:102EC00017F0010E0001746F030E375DD8A46CEF8C
:102ED00017F0376B6EEF17F0030E376F440E0001DB
:102EE000765DD8A4A6EF17F0010E365D0101C09300
:102EF000D8B4C083000139510101C085D8A4C09560
:102F0000C087C0B3C0A5C097C0A7A6EF17F0010E39
:102F10000001746F020E245DD8B498EF17F0780E9C
:102F2000216F226B236B020E246F366BA6EF17F016
:102F3000246BE5510201F76F0001E9510201F86FBE
:102F40000001E151DCEC0DF00001366B3F0E000199
:102F5000765DD8A4DAEF17F0010E365D0101C09D51
:102F6000D8B4C08D000139510101C08FD8A4C09FD1
:102F7000C181C0BDC0AFC191C1A1DAEF17F0010E90
:102F80000001746F030E245DD8B4CCEF17F0030E6C
:102F9000246F366BDAEF17F0246BE5510201F76FFF
:102FA0000001E9510201F86F0001E151DCEC0DF084
:102FB0000001366B390E0001765DD8A40EEF18F0D3
:102FC000010E365D0101C197D8B4C18700013951A6
:102FD0000101C189D8A4C199C18BC1B7C1A9C19B45
:102FE000C1AB0EEF18F0010E0001746F040E245DEA
:102FF000D8B400EF18F0040E246F366B0EEF18F003
:10300000246BE5510201F76F0001E9510201F86FED
:103010000001E151DCEC0DF00001366B3E0E0001C9
:10302000765DD8A47CEF18F0010E365D0101C291E7
:10303000D8B4C281000139510101C283D8A4C2931E
:10304000C285C2B1C2A3C295C2A57CEF18F0010E21
:103050000001746F010E375DD8A446EF18F0780EAA
:10306000F15DD8B437EF18F0D8B039EF18F00A0E88
:10307000F127F2510201F76F0001F3510201F86FDD
:103080000001F151DCEC0DF07CEF18F0020E375D21
:10309000D8A462EF18F0780EF25DD8B453EF18F0B0
:1030A000D8B055EF18F00A0EF227F2510201F76F6F
:1030B0000001F3510201F86F0001F151DCEC0DF059
:1030C0007CEF18F0030E375DD8A47CEF18F0780E73
:1030D000F35DD8B46FEF18F0D8B071EF18F00A0EA6
:1030E000F327F2510201F76F0001F3510201F86F6B
:1030F0000001F151DCEC0DF0400E0001765DD8A42A
:10310000EAEF18F0010E365D0101C395D8B4C3850E
:10311000000139510101C387D8A4C397C389C3B53E
:10312000C3A7C399C3A9EAEF18F0010E0001746F99
:10313000010E375DD8A4B4EF18F00A0EF15DD8B4D3
:10314000A5EF18F0D8A0A7EF18F0F60EF127F2516E
:103150000201F76F0001F3510201F86F0001F15114
:10316000DCEC0DF0EAEF18F0020E375DD8A4D0EFDA
:1031700018F00A0EF25DD8B4C1EF18F0D8A0C3EF72
:1031800018F0F60EF227F2510201F76F0001F35129
:103190000201F86F0001F151DCEC0DF0EAEF18F0DC
:1031A000030E375DD8A4EAEF18F00A0EF35DD8B429
:1031B000DDEF18F0D8A0DFEF18F0F60EF327F2518C
:1031C0000201F76F0001F3510201F86F0001F151A4
:1031D000DCEC0DF0380E0001765DD8A41AEF19F082
:1031E000010E365D0101C499D8B4C489000139517A
:1031F0000101C48BD8A4C49BC48DC4B9C4ABC49D05
:10320000C4AD1AEF19F083A409EF19F08C940AEFFA
:1032100019F08C840001366BE5510201F76F000153
:10322000E9510201F86F0001E151DCEC0DF0010EF3
:103230000001746F1A0E0001765DD8A451EF19F0E9
:10324000010E365D0101C593D8B4C5830001395123
:103250000101C585D8A4C595C587C5B3C5A5C597C2
:10326000C5A751EF19F00301E16BE26B0001F151C9
:10327000BBEC00F0010E0301E16FE26B0001F251C3
:10328000BBEC00F0020E0301E16FE26B0001F351B1
:10329000BBEC00F00001F151E16FF251E56FF35129
:1032A000E96F140E0001765DD8A48CEF19F0010EC1
:1032B000365D0101C59BD8B4C58B000139510101B0
:1032C000C58DD8A4C59DC58FC5BBC5ADC59FC5AFB0
:1032D0008CEF19F0010E0001746F030E0301E16F12
:1032E000E26B0001F151BBEC00F0040E0301E16F51
:1032F000E26B0001F251BBEC00F0050E0301E16F3F
:10330000E26B0001F351BBEC00F00001F151E26F00
:10331000F251E66FF351EA6F130E0001765DD8A407
:10332000C7EF19F0010E365D0101C693D8B4C6830C
:10333000000139510101C685D8A4C695C687C6B318
:10334000C6A5C697C6A7C7EF19F0010E0001746F96
:10335000060E0301E16FE26B0001F151BBEC00F0DE
:10336000070E0301E16FE26B0001F251BBEC00F0CC
:10337000080E0301E16FE26B0001F351BBEC00F0BA
:103380000001F151E36FF251E76FF351EB6F120E51
:103390000001765DD8A402EF1AF0010E365D01013E
:1033A000C69BD8B4C68B000139510101C68DD8A483
:1033B000C69DC68FC6BBC6ADC69FC6AF02EF1AF08C
:1033C000010E0001746F090E0301E16FE26B000151
:1033D000F151BBEC00F00A0E0301E16FE26B00015A
:1033E000F251BBEC00F00B0E0301E16FE26B000148
:1033F000F351BBEC00F00001F151E46FF251E86FC2
:10340000F351EC6F0001756B0C0E755DD8B452EF83
:103410001AF0D8B052EF1AF0010E365D0101C793D1
:10342000D8B4C783010E0001395D0101C795D8B436
:103430001CEF1AF0D8A0C785C787C7B3C7A5C79721
:10344000C7A74EEF1AF000EE29F000017551E926EA
:10345000EF50086F7651085DD8A44EEF1AF0E55191
:103460000201F76F0001E9510201F86F0001E1511B
:10347000DCEC0DF00001366B396B010E746FD890E7
:103480007535ED6F00EE52F0ED51E926EF50706F9B
:10349000E92AEF50716F755198EC0CF00001752B13
:1034A00004EF1AF0010E395DD8A495EF1AF0756B90
:1034B0000C0E755DD8B4C4EF1AF0D8B0C4EF1AF092
:1034C00000EE29F07551E926EF50086F7651085D3E
:1034D000D8A492EF1AF0E8510201F76F0001EC5105
:1034E0000201F86F0001E451DCEC0DF0010E000167
:1034F000746FD8907535ED6F00EE3AF0ED51E92616
:10350000EF6AE92AEF6AD8907535ED6F00EE52F058
:10351000ED51E926EF506E6FE92AEF506F6F020E02
:103520007525396F752B58EF1AF0010E395D0101C1
:10353000C891D8B49EEF1AF0D8B0C88102EE58F006
:1035400000017651E926EF50086F010E085D010178
:10355000C893D8A4C883C885C8B1C8A3C895C8A54E
:10356000C4EF1AF003EE00F000017651E926EF50A7
:1035700003017C6F000135511FEC0CF003017C6BE3
:10358000000135511FEC0CF0010E0001385DD8A48C
:103590004FEF1BF074510101C889D8A4C89902EEFD
:1035A00058F000017651E926EF50086F010E085DD2
:1035B0000101C89BD8A4C88BC88DC8B9C8ABC89D29
:1035C000C8ADF5EF1AF003EE00F000017651E926E0
:1035D000EF5003017A6F000135516CEC0CF00301E0
:1035E0007A6B000135516CEC0CF0000E00016D5D42
:1035F000D8A407EF1BF0060E6C5DD8A407EF1BF0F4
:103600001A0E6B5DD8A407EF1BF0800E6A5DD8B46C
:103610004FEF1BF0D8A04FEF1BF0386B2C0E0201C0
:10362000ED6FEE6B00016A510201EF6F00016B510B
:103630000201F06F00016C510201F16F00016D5148
:103640000201F26FED51F36FEE51F46FF35103018C
:10365000D56F0201F4510301D66F0201EF5103014E
:10366000D76F0201F0510301D86FFAEC00F0020E9F
:103670000201ED25F36F000EEE21F46FF35103010B
:10368000D56F0201F4510301D66F0201F15103011C
:10369000D76F0201F2510301D86FFAEC00F0010E6E
:1036A0000001745DD8A458EF1BF0746B8FEF1BF012
:1036B0007651D9EC0BF08FEF1BF001EE58F00001C2
:1036C0007651E926EF50086F010E085D0101C9939C
:1036D000D8B4C98301EE00F000017651E926EF501D
:1036E0000101C985D8A4C995C987C9B3C9A5C99716
:1036F000C9A78FEF1BF000EE89F000017651E92693
:10370000EF50086F010E085DD8A48FEF1BF000EE9C
:1037100089F07651E926EF6A765174EC0BF001EEF0
:1037200000F000017651E926EF50086F01EE58F0E5
:103730007651E9260851EF6E762B0101FF2B580ECA
:10374000FF5DD8A46DEF15F0070E0001265DD8A42B
:10375000ACEF1BF0080E255DD8B4B5EF1BF0D8B068
:10376000B5EF1BF0252BD8B4262B070E265DD8A469
:10377000BCEF1BF0080E255D0101C99FD8A4D8B08D
:10378000C98F000124510101CA81D8A4CA91CA83FA
:10379000C9BFCAA1CA93CAA3D9EF1BF00001E15166
:1037A000216FE551226FE951236F010E246F04EF61
:1037B0001CF0010E0001245D0101CA95D8B4CA8530
:1037C000070E0001265DD8A4E8EF1BF0080E255D6A
:1037D0000101CA97D8B4EFEF1BF0D8A0CA87CA89F5
:1037E000CAB5CAA7CA99CAA904EF1CF00001E551DD
:1037F0000201F76F0001E9510201F86F0001E15188
:10380000DCEC0DF00001246B010E0001245D0101D0
:10381000CA9BD8B4CA8B040E0001245D0101CA9D65
:10382000D8B4CA8DCA9FCAABCABDCA8FCAAF1DEF72
:103830001DF0010E00011D6F010E1E6F010E1F6FA6
:103840001E0E215DD8B42AEF1CF0D8A02AEF1CF080
:10385000020E1D6F3C0E215DD8B434EF1CF0D8A0D1
:1038600034EF1CF0030E1D6F5A0E215DD8B43EEFED
:103870001CF0D8A03EEF1CF0040E1D6F1E0E225D42
:10388000D8B448EF1CF0D8A048EF1CF0020E1E6F11
:103890003C0E225DD8B452EF1CF0D8A052EF1CF0C1
:1038A000030E1E6F5A0E225DD8B45CEF1CF0D8A038
:1038B0005CEF1CF0040E1E6F1E0E235DD8B466EF85
:1038C0001CF0D8A066EF1CF0020E1F6F3C0E235DAB
:1038D000D8B470EF1CF0D8A070EF1CF0030E1F6F6F
:1038E0005A0E235DD8B47AEF1CF0D8A07AEF1CF002
:1038F000040E1F6F2051D8A4CFEF1CF021511D5D85
:10390000D8B486EF1CF0D8B08AEF1CF0D8802151D3
:103910001D55216F22511E5DD8B492EF1CF0D8B016
:1039200096EF1CF0D88022511E55226F23511F5D47
:10393000D8B49EEF1CF0D8B0A2EF1CF0D880235171
:103940001F55236F21511D5D0101CC9BD8B4ABEFF6
:103950001CF0D8B0CC8B000122511E5D0101CC9D22
:10396000D8B4B5EF1CF0D8B0CC8DCC8FCCBBCCADDF
:10397000CC9F000123511F5D0101CD91D8B4C3EF4D
:103980001CF0D8B0CD81CD83CCBFCDA1CD93CDA33C
:1039900011EF1DF0010E0001206F11EF1DF02151FC
:1039A000E15DD8B4D9EF1CF0D8A0D9EF1CF01D51BF
:1039B00021272251E55DD8B4E3EF1CF0D8A0E3EF56
:1039C0001CF01E5122272351E95DD8B4EDEF1CF005
:1039D000D8A0EDEF1CF01F5123272151E15D01011B
:1039E000CD9BD8A4D8A0CD8B00012251E55D01016B
:1039F000CD9DD8A4D8A0CD8DCD8FCDBBCDADCD9F45
:103A000000012351E95D0101CE91D8A4D8A0CE8157
:103A1000CE83CDBFCEA1CE93CEA311EF1DF000017A
:103A2000206B000122510201F76F000123510201B6
:103A3000F86F00012151DCEC0DF0020E0001245D55
:103A4000D8A46BEF1DF0020E1C5DD8A42BEF1DF067
:103A50001B6B2DEF1DF01C291B6F00EE21F01B517D
:103A6000E926EF50086F780E085DD8B459EF1DF0C5
:103A7000D8B059EF1DF000EE21F01B51E926EF50B0
:103A8000086F0829096F00EE21F01B51E926095142
:103A9000EF6E00EE21F01C51E926EF50086F08058B
:103AA000096F00EE21F01C51E9260951EF6E5AEF23
:103AB0001DF01C2B030E1C5DD8A460EF1DF01C6BC9
:103AC00022510201F76F000123510201F86F00013A
:103AD0002151DCEC0DF0030E0001245DD8A4D6EFDB
:103AE0000EF0010E766F0201F56B000176511A5D42
:103AF000D8A488EF1DF0E5510301616F0001E95181
:103B00000301626F0001E1513AEC0DF08EEF1DF000
:103B10000301616B626B000E3AEC0DF00001762B35
:103B20000201F52B1B0EF55DD8A475EF1DF0010EFB
:103B30000001205DD8A4A8EF1DF01A2B1C0E1A5D01
:103B4000D8A4D6EF0EF0206B1A0E1A6FD6EF0EF037
:103B50001A071A51D8A4D6EF0EF0010E206F020EEC
:063B60001A6FD6EF0EF013
:020000040030CA
:0E000000240E391E0085C0000FC00FE00F4017
:00000001FF
